:040000004DEF00F0D0
:100008004282FACF2BF0FBCF2CF0E9CF2DF0EACFCC
:100018002EF0E1CF2FF0E2CF30F0D9CF31F0DACFA8
:1000280032F0F3CF33F0F4CF34F0F6CF35F0F7CF2A
:1000380036F0F8CF37F0F5CF38F0F2BCA0A605D0EF
:10004800A1A603D0B5EC05F006D0F2BC9DA603D05E
:100058009EB605EC03F038C0F5FF37C0F8FF36C090
:10006800F7FF35C0F6FF34C0F4FF33C0F3FF32C0EA
:10007800DAFF31C0D9FF30C0E2FF2FC0E1FF2EC048
:10008800EAFF2DC0E9FF2CC0FBFF2BC0FAFF42920C
:06009800110065EF05F008
:10060000000804020180402010009E96C6AEF9D07A
:10061000C69E000E116E20EE03F00A50D9260B5034
:10062000DA22DECF29F0DDCF2AF029C0D9FF2AC097
:10063000DAFF010EDF6E000E0A6E000E0B6E120066
:1006400005B2120003C00AF004C00BF003C0D9FFCA
:1006500004C0DAFFDF50106E20EE01F00350D926FF
:100660000450DA22DECF0CF0DDCF0DF0060E0326AB
:10067000000E0422240E031808E1000E0418D8A46A
:1006800004D01E0E036E000E046E05900150031878
:1006900004E102500418D8B40582C580020E116E20
:1006A0001200C582020E116E1200C5AC05D0072AD9
:1006B000040EE0EC04F01200D89025302A6E2430AD
:1006C000296E2950C96E24A003D00B0E116E1200A2
:1006D000030E116E1200C5AC05D0072A040EE0EC23
:1006E00004F01200C58224C029F025C02AF02AC0D7
:1006F00029F02A6A060E2916000E2A16F00E291075
:10070000246E2A50256E2480010E0E6E020E116E8C
:1007100012000E04D8B41AD00CC0D9FF0DC0DAFFF5
:10072000DECF24F0DDCF25F020EE03F00C50D926EB
:100730000D50DA22DECF08F0DDCF09F020EE02F016
:100740000C50D9260D50DA22DF500F6E24C0C9FF9D
:1007500024A003D0050E116E1200030E116E1200BC
:10076000C5AC06D0072AC59C050EE0EC04F01200CB
:100770000F060F28D8A40ED0060E0C26000E0D2250
:10078000102E04D0000EE0EC04F01200C582020E20
:10079000116E120008C0D9FF09C0DAFFDF50C96E20
:1007A000084A092A1200C5AC06D0072A040EE0EC5C
:1007B00004F0C59C1200C586080E116E1200080ECA
:1007C000116EC586120008C0D9FF09C0DAFFC9CF73
:1007D000DFFF084A092A010E0F5ED8B404D0C59A7B
:1007E000060E116E03D0C58A7FEC05F0C588120095
:1007F000000EE0EC04F01200072A060EE0EC04F014
:1008000012001150000AD8B41BD7010AD8B449D736
:10081000030AD8B47ED7010AD8B4A2D7070AD8B43D
:10082000E7D7010AD8B4BFD7030AD8B4C8D7010A9A
:10083000D8B4DED70F0AD8B4C6D7020AD8B435D791
:10084000010AD8B448D7D8D754EC05F0000E3F6E53
:10085000000E416E000E406E828AB1EC05F0C00BB6
:100860003F6E2BD0470E6DEC04F0416E4128D8B49A
:1008700031D04150FF0A2DEC05F0406E40C03BF0F6
:10088000490EB4EC04F026D0410E6DEC04F0416E3C
:1008900041C03BF04B0EB4EC04F01CD0430E6DECA9
:1008A00004F0416E41C03BF04D0EB4EC04F012D0A8
:1008B000450E6DEC04F0416E0DD03F50000AD8B4E7
:1008C000D1D7400AD8B4E0D7C00AD8B4E7D7400A95
:1008D000D8B4EED741C080FFBFD73E6E000E3D6E4C
:1008E000AAEC05F03E50FE0B9BEC05F0030E9BECD2
:1008F00005F0FF0E9BEC05F0A6EC05F0030E3C6E38
:10090000980EE82EFED73C2EFCD7AAEC05F03E5000
:10091000FE0B9BEC05F0000E9BEC05F0AAEC05F03D
:100920003E509BEC05F0000E41EC05F03D6EA6EC50
:1009300005F0030E3C6E980EE82EFED73C2EFCD739
:10094000AAEC05F03E509BEC05F0000E41EC05F0E2
:100950003D6EA6EC05F0030E3C6E980EE82EFED719
:100960003C2EFCD73D5012003D6EAAEC05F03D50E8
:10097000FE0B9BEC05F0030E9BEC05F0000E9BECD0
:1009800005F0A6EC05F0030E3C6E980EE82EFED79F
:100990003C2EFCD7AAEC05F03D50FE0B9BEC05F07D
:1009A000010E9BEC05F03B509BEC05F0A6EC05F02E
:1009B000030E3C6E980EE82EFED73C2EFCD712009C
:1009C000286EC58420EE03F00A50D9260B50DA2297
:1009D000DE50DE10D8B410D020EE03F00A50D92635
:1009E0000B50DA22DECF26F0DDCF27F026C0D9FF6C
:1009F00027C0DAFF28C0DFFF000E116E1200000EC4
:100A00008D6E000E8C6E000E896E000E8A6E000ECA
:100A10008B6E070E966E000E926E9368DF0E946ECC
:100A200095681F0E7F6EE00E7E6E7C68F19E120050
:100A30001E0E036E000E046E1E0E016E000E026E80
:100A400005820590000E076E800EC76E280EC66EDA
:100A5000030EC86E9E969D9612003A6E000E396E79
:100A600003D0D8903A303A6E3AA0FBD73950010DF6
:100A7000010EF324F66E060EF420F76E0800F55012
:100A800012003A6E8BEC05F0C5868BEC05F0C9CFF1
:100A90003BF08BEC05F03A50D8A402D0C58A01D0C7
:100AA000C59AC5883B501200B3EC05F0FFEC04F08A
:100AB000A1EC05F018EC05F072EC05F0AEEC05F0D9
:100AC00094EC05F0B4EC05F0120000EE01F0250EF8
:100AD000EE6AE806FDE142904292000EF86E0001D7
:100AE00024EF04F0000EBD6E000EB66E000EB76E61
:100AF000010EB96E000EBE6E000EBF6E1200060E25
:100B00000C26000E0D22102E03D0040E116E1200C2
:100B1000010E116E1200C7B4FED7C5CF39F01F0EFB
:100B20003916D8B41200F7D7000EBA6E000EBB6E9D
:100B3000000EBC6E12003A6E8BEC05F03AC0C9FF95
:100B40001200600ED36E000E9B6E12008BEC05F04F
:100B5000C58412008BEC05F0C5801200800EB56EC6
:0C0B60001200835012001200120012005C
:020000040020DA
:08000000FFFFFFFFFFFFFFFF00
:020000040030CA
:0E000000FF081F1EFF8905FF0FC00FE00F4015
:00000001FF
